{
  "contractName": "BountyFactory",
  "abi": [
    {
      "constant": true,
      "inputs": [
        {
          "name": "",
          "type": "uint256"
        }
      ],
      "name": "bountyToOwner",
      "outputs": [
        {
          "name": "",
          "type": "address"
        }
      ],
      "payable": false,
      "stateMutability": "view",
      "type": "function"
    },
    {
      "constant": true,
      "inputs": [],
      "name": "owner",
      "outputs": [
        {
          "name": "",
          "type": "address"
        }
      ],
      "payable": false,
      "stateMutability": "view",
      "type": "function"
    },
    {
      "constant": true,
      "inputs": [
        {
          "name": "",
          "type": "uint256"
        }
      ],
      "name": "bounties",
      "outputs": [
        {
          "name": "creator",
          "type": "address"
        },
        {
          "name": "amount",
          "type": "uint256"
        },
        {
          "name": "taker",
          "type": "address"
        },
        {
          "name": "taken",
          "type": "bool"
        },
        {
          "name": "complete",
          "type": "bool"
        },
        {
          "name": "verified",
          "type": "bool"
        },
        {
          "name": "dueDate",
          "type": "uint32"
        }
      ],
      "payable": false,
      "stateMutability": "view",
      "type": "function"
    },
    {
      "constant": false,
      "inputs": [
        {
          "name": "newOwner",
          "type": "address"
        }
      ],
      "name": "transferOwnership",
      "outputs": [],
      "payable": false,
      "stateMutability": "nonpayable",
      "type": "function"
    },
    {
      "inputs": [],
      "payable": false,
      "stateMutability": "nonpayable",
      "type": "constructor"
    },
    {
      "anonymous": false,
      "inputs": [
        {
          "indexed": false,
          "name": "bountyId",
          "type": "uint256"
        },
        {
          "indexed": false,
          "name": "amount",
          "type": "uint256"
        }
      ],
      "name": "NewBounty",
      "type": "event"
    },
    {
      "anonymous": false,
      "inputs": [
        {
          "indexed": true,
          "name": "previousOwner",
          "type": "address"
        },
        {
          "indexed": true,
          "name": "newOwner",
          "type": "address"
        }
      ],
      "name": "OwnershipTransferred",
      "type": "event"
    }
  ],
  "bytecode": "0x6080604052620d2f0060025534801561001757600080fd5b50336000806101000a81548173ffffffffffffffffffffffffffffffffffffffff021916908373ffffffffffffffffffffffffffffffffffffffff1602179055506104ea806100676000396000f300608060405260043610610062576000357c0100000000000000000000000000000000000000000000000000000000900463ffffffff168063575d4bfe146100675780638da5cb5b146100d4578063dc2f87441461012b578063f2fde38b14610206575b600080fd5b34801561007357600080fd5b5061009260048036038101908080359060200190929190505050610249565b604051808273ffffffffffffffffffffffffffffffffffffffff1673ffffffffffffffffffffffffffffffffffffffff16815260200191505060405180910390f35b3480156100e057600080fd5b506100e961027c565b604051808273ffffffffffffffffffffffffffffffffffffffff1673ffffffffffffffffffffffffffffffffffffffff16815260200191505060405180910390f35b34801561013757600080fd5b50610156600480360381019080803590602001909291905050506102a1565b604051808873ffffffffffffffffffffffffffffffffffffffff1673ffffffffffffffffffffffffffffffffffffffff1681526020018781526020018673ffffffffffffffffffffffffffffffffffffffff1673ffffffffffffffffffffffffffffffffffffffff1681526020018515151515815260200184151515158152602001831515151581526020018263ffffffff1663ffffffff16815260200197505050505050505060405180910390f35b34801561021257600080fd5b50610247600480360381019080803573ffffffffffffffffffffffffffffffffffffffff169060200190929190505050610369565b005b60046020528060005260406000206000915054906101000a900473ffffffffffffffffffffffffffffffffffffffff1681565b6000809054906101000a900473ffffffffffffffffffffffffffffffffffffffff1681565b6003818154811015156102b057fe5b90600052602060002090600302016000915090508060000160009054906101000a900473ffffffffffffffffffffffffffffffffffffffff16908060010154908060020160009054906101000a900473ffffffffffffffffffffffffffffffffffffffff16908060020160149054906101000a900460ff16908060020160159054906101000a900460ff16908060020160169054906101000a900460ff16908060020160179054906101000a900463ffffffff16905087565b6000809054906101000a900473ffffffffffffffffffffffffffffffffffffffff1673ffffffffffffffffffffffffffffffffffffffff163373ffffffffffffffffffffffffffffffffffffffff161415156103c457600080fd5b600073ffffffffffffffffffffffffffffffffffffffff168173ffffffffffffffffffffffffffffffffffffffff161415151561040057600080fd5b8073ffffffffffffffffffffffffffffffffffffffff166000809054906101000a900473ffffffffffffffffffffffffffffffffffffffff1673ffffffffffffffffffffffffffffffffffffffff167f8be0079c531659141344cd1fd0a4f28419497f9722a3daafe3b4186f6b6457e060405160405180910390a3806000806101000a81548173ffffffffffffffffffffffffffffffffffffffff021916908373ffffffffffffffffffffffffffffffffffffffff160217905550505600a165627a7a7230582010096df883e5ac9b1e14a884867be170b71c14ce43581ea8640e1274b48c55700029",
  "source": "pragma solidity ^0.4.19;\n\nimport \"./Ownable.sol\";\n\ncontract BountyFactory is Ownable {\n    address bountyTaker;\n    constructor () public {}\n\n    event NewBounty(uint bountyId, uint amount);\n\n    uint cooldownTime = 10 days;\n\n    struct Bounty {\n        address creator;\n        uint amount;\n        address taker;\n        bool taken;\n        bool complete;\n        bool verified;\n        uint32 dueDate;\n    }\n\n    Bounty[] public bounties;\n\n    mapping (uint => address) public bountyToOwner;\n    mapping (address => uint) ownerBountyCount;\n\n    function _createBounty(uint _amt) internal returns(uint){\n        uint id = bounties.push(Bounty(msg.sender,_amt, bountyTaker, false, false, false, uint32(block.timestamp + cooldownTime))) - 1;\n        bountyToOwner[id] = msg.sender;\n        ownerBountyCount[msg.sender]++;\n        emit NewBounty(id, _amt);\n        return id;\n    }\n\n}",
  "sourcePath": "/Users/benbrown/Desktop/dev/service-bounty/hacking-democracy-bounty/contracts/BountyFactory.sol",
  "compiler": {
    "name": "solc",
    "version": "0.4.24+commit.e67f0147.Emscripten.clang"
  },
  "schemaVersion": "2.0.1",
  "updatedAt": "2018-10-26T04:00:42.773Z"
}