{
  "contractName": "SimpleStorage",
  "abi": [
    {
      "anonymous": false,
      "inputs": [
        {
          "indexed": true,
          "name": "_who",
          "type": "address"
        }
      ],
      "name": "Test",
      "type": "event"
    },
    {
      "constant": false,
      "inputs": [
        {
          "name": "x",
          "type": "uint256"
        }
      ],
      "name": "set",
      "outputs": [],
      "payable": false,
      "stateMutability": "nonpayable",
      "type": "function"
    },
    {
      "constant": true,
      "inputs": [
        {
          "name": "x",
          "type": "uint256"
        }
      ],
      "name": "times",
      "outputs": [
        {
          "name": "",
          "type": "uint256"
        }
      ],
      "payable": false,
      "stateMutability": "view",
      "type": "function"
    },
    {
      "constant": true,
      "inputs": [],
      "name": "get",
      "outputs": [
        {
          "name": "",
          "type": "uint256"
        }
      ],
      "payable": false,
      "stateMutability": "view",
      "type": "function"
    }
  ],
  "bytecode": "0x608060405234801561001057600080fd5b50610193806100206000396000f300608060405260043610610057576000357c0100000000000000000000000000000000000000000000000000000000900463ffffffff16806320982bce1461005c57806360fe47b11461009d5780636d4ce63c146100ca575b600080fd5b34801561006857600080fd5b50610087600480360381019080803590602001909291905050506100f5565b6040518082815260200191505060405180910390f35b3480156100a957600080fd5b506100c860048036038101908080359060200190929190505050610103565b005b3480156100d657600080fd5b506100df61015e565b6040518082815260200191505060405180910390f35b600081600054029050919050565b600581141561011157600080fd5b806000819055503373ffffffffffffffffffffffffffffffffffffffff167faa9449f2bca09a7b28319d46fd3f3b58a1bb7d94039fc4b69b7bfe5d8535d52760405160405180910390a250565b600080549050905600a165627a7a72305820c1779f0b738e322bc0a4684a860ca1f2a5e6da8183af51d3162d720148c192f50029",
  "source": "pragma solidity ^0.4.18;\n\ncontract SimpleStorage {\n    uint storedData;\n    event Test(address indexed _who);\n\n    function set(uint x) public {\n        if (x == 5)\n          revert();\n        storedData = x;\n        emit Test(msg.sender);\n    }\n\n    function times(uint x) public view returns (uint) {\n        return storedData * x;\n    }\n\n    function get() public view returns (uint) {\n        return storedData;\n    }\n}\n",
  "sourcePath": "/Users/benbrown/Desktop/dev/service-bounty/hacking-democracy-bounty/contracts/SimpleStorage.sol",
  "compiler": {
    "name": "solc",
    "version": "0.4.24+commit.e67f0147.Emscripten.clang"
  },
  "schemaVersion": "2.0.1",
  "updatedAt": "2018-10-26T04:00:42.767Z"
}