{
  "contractName": "SmartBounty",
  "abi": [
    {
      "constant": true,
      "inputs": [
        {
          "name": "",
          "type": "uint256"
        }
      ],
      "name": "bountyToOwner",
      "outputs": [
        {
          "name": "",
          "type": "address"
        }
      ],
      "payable": false,
      "stateMutability": "view",
      "type": "function"
    },
    {
      "constant": true,
      "inputs": [],
      "name": "owner",
      "outputs": [
        {
          "name": "",
          "type": "address"
        }
      ],
      "payable": false,
      "stateMutability": "view",
      "type": "function"
    },
    {
      "constant": true,
      "inputs": [
        {
          "name": "",
          "type": "uint256"
        }
      ],
      "name": "bounties",
      "outputs": [
        {
          "name": "creator",
          "type": "address"
        },
        {
          "name": "amount",
          "type": "uint256"
        },
        {
          "name": "taker",
          "type": "address"
        },
        {
          "name": "taken",
          "type": "bool"
        },
        {
          "name": "complete",
          "type": "bool"
        },
        {
          "name": "verified",
          "type": "bool"
        },
        {
          "name": "dueDate",
          "type": "uint32"
        }
      ],
      "payable": false,
      "stateMutability": "view",
      "type": "function"
    },
    {
      "constant": false,
      "inputs": [
        {
          "name": "newOwner",
          "type": "address"
        }
      ],
      "name": "transferOwnership",
      "outputs": [],
      "payable": false,
      "stateMutability": "nonpayable",
      "type": "function"
    },
    {
      "inputs": [],
      "payable": false,
      "stateMutability": "nonpayable",
      "type": "constructor"
    },
    {
      "anonymous": false,
      "inputs": [
        {
          "indexed": true,
          "name": "addr",
          "type": "address"
        },
        {
          "indexed": false,
          "name": "amount",
          "type": "uint256"
        }
      ],
      "name": "BountyCreated",
      "type": "event"
    },
    {
      "anonymous": false,
      "inputs": [
        {
          "indexed": false,
          "name": "addr",
          "type": "address"
        },
        {
          "indexed": false,
          "name": "bountyId",
          "type": "uint256"
        }
      ],
      "name": "BountyTaken",
      "type": "event"
    },
    {
      "anonymous": false,
      "inputs": [
        {
          "indexed": false,
          "name": "addr",
          "type": "address"
        },
        {
          "indexed": false,
          "name": "bountyId",
          "type": "uint256"
        }
      ],
      "name": "BountyCompleted",
      "type": "event"
    },
    {
      "anonymous": false,
      "inputs": [
        {
          "indexed": false,
          "name": "addr",
          "type": "address"
        },
        {
          "indexed": false,
          "name": "bountyId",
          "type": "uint256"
        }
      ],
      "name": "BountyVerified",
      "type": "event"
    },
    {
      "anonymous": false,
      "inputs": [
        {
          "indexed": false,
          "name": "addr",
          "type": "address"
        },
        {
          "indexed": false,
          "name": "bountyId",
          "type": "uint256"
        }
      ],
      "name": "BountyWithdraw",
      "type": "event"
    },
    {
      "anonymous": false,
      "inputs": [
        {
          "indexed": false,
          "name": "bountyId",
          "type": "uint256"
        },
        {
          "indexed": false,
          "name": "amount",
          "type": "uint256"
        }
      ],
      "name": "NewBounty",
      "type": "event"
    },
    {
      "anonymous": false,
      "inputs": [
        {
          "indexed": true,
          "name": "previousOwner",
          "type": "address"
        },
        {
          "indexed": true,
          "name": "newOwner",
          "type": "address"
        }
      ],
      "name": "OwnershipTransferred",
      "type": "event"
    },
    {
      "constant": false,
      "inputs": [],
      "name": "createBounty",
      "outputs": [
        {
          "name": "",
          "type": "uint256"
        }
      ],
      "payable": true,
      "stateMutability": "payable",
      "type": "function"
    },
    {
      "constant": true,
      "inputs": [
        {
          "name": "_addr",
          "type": "address"
        }
      ],
      "name": "getTakenBountyByAddr",
      "outputs": [
        {
          "name": "",
          "type": "uint256"
        }
      ],
      "payable": false,
      "stateMutability": "view",
      "type": "function"
    },
    {
      "constant": false,
      "inputs": [
        {
          "name": "_bountyId",
          "type": "uint256"
        }
      ],
      "name": "initiateBounty",
      "outputs": [
        {
          "name": "",
          "type": "bool"
        }
      ],
      "payable": false,
      "stateMutability": "nonpayable",
      "type": "function"
    },
    {
      "constant": true,
      "inputs": [
        {
          "name": "_bountyId",
          "type": "uint256"
        }
      ],
      "name": "isBountyInitiated",
      "outputs": [
        {
          "name": "",
          "type": "bool"
        }
      ],
      "payable": false,
      "stateMutability": "view",
      "type": "function"
    },
    {
      "constant": true,
      "inputs": [
        {
          "name": "_bountyId",
          "type": "uint256"
        }
      ],
      "name": "isBountyCompleted",
      "outputs": [
        {
          "name": "",
          "type": "bool"
        }
      ],
      "payable": false,
      "stateMutability": "view",
      "type": "function"
    },
    {
      "constant": true,
      "inputs": [
        {
          "name": "_bountyId",
          "type": "uint256"
        }
      ],
      "name": "isBountyVerified",
      "outputs": [
        {
          "name": "",
          "type": "bool"
        }
      ],
      "payable": false,
      "stateMutability": "view",
      "type": "function"
    },
    {
      "constant": true,
      "inputs": [
        {
          "name": "_bountyId",
          "type": "uint256"
        }
      ],
      "name": "getBountyStates",
      "outputs": [
        {
          "name": "",
          "type": "bool"
        },
        {
          "name": "",
          "type": "bool"
        },
        {
          "name": "",
          "type": "bool"
        }
      ],
      "payable": false,
      "stateMutability": "view",
      "type": "function"
    },
    {
      "constant": false,
      "inputs": [
        {
          "name": "_bountyId",
          "type": "uint256"
        }
      ],
      "name": "completeBounty",
      "outputs": [
        {
          "name": "",
          "type": "bool"
        }
      ],
      "payable": false,
      "stateMutability": "nonpayable",
      "type": "function"
    },
    {
      "constant": false,
      "inputs": [
        {
          "name": "_bountyId",
          "type": "uint256"
        }
      ],
      "name": "verifyBounty",
      "outputs": [
        {
          "name": "",
          "type": "bool"
        }
      ],
      "payable": false,
      "stateMutability": "nonpayable",
      "type": "function"
    },
    {
      "constant": false,
      "inputs": [
        {
          "name": "_bountyId",
          "type": "uint256"
        }
      ],
      "name": "withdrawBounty",
      "outputs": [
        {
          "name": "",
          "type": "bool"
        }
      ],
      "payable": false,
      "stateMutability": "nonpayable",
      "type": "function"
    },
    {
      "constant": true,
      "inputs": [
        {
          "name": "_bountyId",
          "type": "uint256"
        }
      ],
      "name": "bountyBalance",
      "outputs": [
        {
          "name": "",
          "type": "uint256"
        }
      ],
      "payable": false,
      "stateMutability": "view",
      "type": "function"
    },
    {
      "constant": true,
      "inputs": [
        {
          "name": "_bountyId",
          "type": "uint256"
        }
      ],
      "name": "getBountyAmtById",
      "outputs": [
        {
          "name": "",
          "type": "uint256"
        }
      ],
      "payable": false,
      "stateMutability": "view",
      "type": "function"
    },
    {
      "constant": true,
      "inputs": [
        {
          "name": "_owner",
          "type": "address"
        }
      ],
      "name": "getBountiesByOwner",
      "outputs": [
        {
          "name": "",
          "type": "uint256[]"
        }
      ],
      "payable": false,
      "stateMutability": "view",
      "type": "function"
    },
    {
      "constant": true,
      "inputs": [],
      "name": "getAllBounties",
      "outputs": [
        {
          "name": "",
          "type": "uint256[]"
        }
      ],
      "payable": false,
      "stateMutability": "view",
      "type": "function"
    },
    {
      "constant": true,
      "inputs": [],
      "name": "getBountyCount",
      "outputs": [
        {
          "name": "",
          "type": "uint256"
        }
      ],
      "payable": false,
      "stateMutability": "view",
      "type": "function"
    }
  ],
  "bytecode": "0x6080604052620d2f0060025534801561001757600080fd5b50336000806101000a81548173ffffffffffffffffffffffffffffffffffffffff021916908373ffffffffffffffffffffffffffffffffffffffff160217905550611799806100676000396000f300608060405260043610610107576000357c0100000000000000000000000000000000000000000000000000000000900463ffffffff16806306641f7e1461010c5780630dd30a1414610137578063139005ab1461017c5780632bef7c7f146101c1578063335f27da146101df5780634fc9b1c11461023a578063575d4bfe1461027b5780635a8e77a5146102e85780635f231c291461032d578063685f2d46146103725780636dbdfe6c1461040a5780638da5cb5b14610461578063ab643c07146104b8578063afa3a37d14610524578063bcc3456514610569578063c2a32079146105ae578063dc2f8744146105ef578063ea92567b146106ca578063f2fde38b1461070f575b600080fd5b34801561011857600080fd5b50610121610752565b6040518082815260200191505060405180910390f35b34801561014357600080fd5b506101626004803603810190808035906020019092919050505061075f565b604051808215151515815260200191505060405180910390f35b34801561018857600080fd5b506101a760048036038101908080359060200190929190505050610796565b604051808215151515815260200191505060405180910390f35b6101c9610935565b6040518082815260200191505060405180910390f35b3480156101eb57600080fd5b5061020a60048036038101908080359060200190929190505050610998565b60405180841515151581526020018315151515815260200182151515158152602001935050505060405180910390f35b34801561024657600080fd5b5061026560048036038101908080359060200190929190505050610a44565b6040518082815260200191505060405180910390f35b34801561028757600080fd5b506102a660048036038101908080359060200190929190505050610a6e565b604051808273ffffffffffffffffffffffffffffffffffffffff1673ffffffffffffffffffffffffffffffffffffffff16815260200191505060405180910390f35b3480156102f457600080fd5b5061031360048036038101908080359060200190929190505050610aa1565b604051808215151515815260200191505060405180910390f35b34801561033957600080fd5b5061035860048036038101908080359060200190929190505050610c60565b604051808215151515815260200191505060405180910390f35b34801561037e57600080fd5b506103b3600480360381019080803573ffffffffffffffffffffffffffffffffffffffff169060200190929190505050610c97565b6040518080602001828103825283818151815260200191508051906020019060200280838360005b838110156103f65780820151818401526020810190506103db565b505050509050019250505060405180910390f35b34801561041657600080fd5b5061044b600480360381019080803573ffffffffffffffffffffffffffffffffffffffff169060200190929190505050610dc9565b6040518082815260200191505060405180910390f35b34801561046d57600080fd5b50610476610e7c565b604051808273ffffffffffffffffffffffffffffffffffffffff1673ffffffffffffffffffffffffffffffffffffffff16815260200191505060405180910390f35b3480156104c457600080fd5b506104cd610ea1565b6040518080602001828103825283818151815260200191508051906020019060200280838360005b838110156105105780820151818401526020810190506104f5565b505050509050019250505060405180910390f35b34801561053057600080fd5b5061054f60048036038101908080359060200190929190505050610f2f565b604051808215151515815260200191505060405180910390f35b34801561057557600080fd5b50610594600480360381019080803590602001909291905050506110b9565b604051808215151515815260200191505060405180910390f35b3480156105ba57600080fd5b506105d96004803603810190808035906020019092919050505061121b565b6040518082815260200191505060405180910390f35b3480156105fb57600080fd5b5061061a60048036038101908080359060200190929190505050611245565b604051808873ffffffffffffffffffffffffffffffffffffffff1673ffffffffffffffffffffffffffffffffffffffff1681526020018781526020018673ffffffffffffffffffffffffffffffffffffffff1673ffffffffffffffffffffffffffffffffffffffff1681526020018515151515815260200184151515158152602001831515151581526020018263ffffffff1663ffffffff16815260200197505050505050505060405180910390f35b3480156106d657600080fd5b506106f56004803603810190808035906020019092919050505061130d565b604051808215151515815260200191505060405180910390f35b34801561071b57600080fd5b50610750600480360381019080803573ffffffffffffffffffffffffffffffffffffffff169060200190929190505050611344565b005b6000600380549050905090565b600060038281548110151561077057fe5b906000526020600020906003020160020160149054906101000a900460ff169050919050565b60003373ffffffffffffffffffffffffffffffffffffffff166003838154811015156107be57fe5b906000526020600020906003020160020160009054906101000a900473ffffffffffffffffffffffffffffffffffffffff1673ffffffffffffffffffffffffffffffffffffffff1614801561084457506000151560038381548110151561082157fe5b906000526020600020906003020160020160159054906101000a900460ff161515145b801561088157506001151560038381548110151561085e57fe5b906000526020600020906003020160020160149054906101000a900460ff161515145b151561088c57600080fd5b600160038381548110151561089d57fe5b906000526020600020906003020160020160156101000a81548160ff0219169083151502179055507fc4f6aa56c2c45f706ff58d9582f241d2ed8302b3ece6eb8104e55e86cd36b10e3383604051808373ffffffffffffffffffffffffffffffffffffffff1673ffffffffffffffffffffffffffffffffffffffff1681526020018281526020019250505060405180910390a1919050565b60008061094134611499565b90503373ffffffffffffffffffffffffffffffffffffffff167f5cc937fae61d1ffa904ad783044849b94e0161a56db15f6c6fc66a54f17b6aad346040518082815260200191505060405180910390a28091505090565b6000806000806000806003878154811015156109b057fe5b906000526020600020906003020160020160149054906101000a900460ff1692506003878154811015156109e057fe5b906000526020600020906003020160020160159054906101000a900460ff169150600387815481101515610a1057fe5b906000526020600020906003020160020160169054906101000a900460ff1690508282829550955095505050509193909250565b6000600382815481101515610a5557fe5b9060005260206000209060030201600101549050919050565b60046020528060005260406000206000915054906101000a900473ffffffffffffffffffffffffffffffffffffffff1681565b6000803373ffffffffffffffffffffffffffffffffffffffff16600384815481101515610aca57fe5b906000526020600020906003020160020160009054906101000a900473ffffffffffffffffffffffffffffffffffffffff1673ffffffffffffffffffffffffffffffffffffffff16148015610b50575060011515600384815481101515610b2d57fe5b906000526020600020906003020160020160169054906101000a900460ff161515145b1515610b5b57600080fd5b600383815481101515610b6a57fe5b90600052602060002090600302016001015490506000600384815481101515610b8f57fe5b9060005260206000209060030201600101819055503373ffffffffffffffffffffffffffffffffffffffff166108fc829081150290604051600060405180830381858888f19350505050158015610bea573d6000803e3d6000fd5b507f8fa52b6b8afe40318ed199e41a70870b67469ac83e2b79185f1018890440413a3384604051808373ffffffffffffffffffffffffffffffffffffffff1673ffffffffffffffffffffffffffffffffffffffff1681526020018281526020019250505060405180910390a16001915050919050565b6000600382815481101515610c7157fe5b906000526020600020906003020160020160159054906101000a900460ff169050919050565b606080600080600560008673ffffffffffffffffffffffffffffffffffffffff1673ffffffffffffffffffffffffffffffffffffffff16815260200190815260200160002054604051908082528060200260200182016040528015610d0b5781602001602082028038833980820191505090505b50925060009150600090505b600380549050811015610dbe578473ffffffffffffffffffffffffffffffffffffffff166004600083815260200190815260200160002060009054906101000a900473ffffffffffffffffffffffffffffffffffffffff1673ffffffffffffffffffffffffffffffffffffffff161415610db157808383815181101515610d9a57fe5b906020019060200201818152505081806001019250505b8080600101915050610d17565b829350505050919050565b6000806000809150600090505b600380549050811015610e74578373ffffffffffffffffffffffffffffffffffffffff16600382815481101515610e0957fe5b906000526020600020906003020160020160009054906101000a900473ffffffffffffffffffffffffffffffffffffffff1673ffffffffffffffffffffffffffffffffffffffff161415610e5f57809250610e75565b81806001019250508080600101915050610dd6565b5b5050919050565b6000809054906101000a900473ffffffffffffffffffffffffffffffffffffffff1681565b606080600080600380549050604051908082528060200260200182016040528015610edb5781602001602082028038833980820191505090505b50925060009150600090505b600380549050811015610f2657808383815181101515610f0357fe5b906020019060200201818152505081806001019250508080600101915050610ee7565b82935050505090565b6000801515600383815481101515610f4357fe5b906000526020600020906003020160020160149054906101000a900460ff161515148015610fa2575060001515600383815481101515610f7f57fe5b906000526020600020906003020160020160159054906101000a900460ff161515145b1515610fad57600080fd5b33600383815481101515610fbd57fe5b906000526020600020906003020160020160006101000a81548173ffffffffffffffffffffffffffffffffffffffff021916908373ffffffffffffffffffffffffffffffffffffffff160217905550600160038381548110151561101d57fe5b906000526020600020906003020160020160146101000a81548160ff0219169083151502179055507f03f9c17a4dd124e717294be3d8a55c469a0d4658e06d72d6e2602e611e1c28543383604051808373ffffffffffffffffffffffffffffffffffffffff1673ffffffffffffffffffffffffffffffffffffffff1681526020018281526020019250505060405180910390a160019050919050565b60003373ffffffffffffffffffffffffffffffffffffffff166003838154811015156110e157fe5b906000526020600020906003020160000160009054906101000a900473ffffffffffffffffffffffffffffffffffffffff1673ffffffffffffffffffffffffffffffffffffffff1614801561116757506001151560038381548110151561114457fe5b906000526020600020906003020160020160159054906101000a900460ff161515145b151561117257600080fd5b600160038381548110151561118357fe5b906000526020600020906003020160020160166101000a81548160ff0219169083151502179055507f8f8d46289b160d02b15add2126dbcdb62ea97dec1c169f24fda54fc2df6cb38c3383604051808373ffffffffffffffffffffffffffffffffffffffff1673ffffffffffffffffffffffffffffffffffffffff1681526020018281526020019250505060405180910390a1919050565b600060038281548110151561122c57fe5b9060005260206000209060030201600101549050919050565b60038181548110151561125457fe5b90600052602060002090600302016000915090508060000160009054906101000a900473ffffffffffffffffffffffffffffffffffffffff16908060010154908060020160009054906101000a900473ffffffffffffffffffffffffffffffffffffffff16908060020160149054906101000a900460ff16908060020160159054906101000a900460ff16908060020160169054906101000a900460ff16908060020160179054906101000a900463ffffffff16905087565b600060038281548110151561131e57fe5b906000526020600020906003020160020160169054906101000a900460ff169050919050565b6000809054906101000a900473ffffffffffffffffffffffffffffffffffffffff1673ffffffffffffffffffffffffffffffffffffffff163373ffffffffffffffffffffffffffffffffffffffff1614151561139f57600080fd5b600073ffffffffffffffffffffffffffffffffffffffff168173ffffffffffffffffffffffffffffffffffffffff16141515156113db57600080fd5b8073ffffffffffffffffffffffffffffffffffffffff166000809054906101000a900473ffffffffffffffffffffffffffffffffffffffff1673ffffffffffffffffffffffffffffffffffffffff167f8be0079c531659141344cd1fd0a4f28419497f9722a3daafe3b4186f6b6457e060405160405180910390a3806000806101000a81548173ffffffffffffffffffffffffffffffffffffffff021916908373ffffffffffffffffffffffffffffffffffffffff16021790555050565b6000806001600360e0604051908101604052803373ffffffffffffffffffffffffffffffffffffffff168152602001868152602001600160009054906101000a900473ffffffffffffffffffffffffffffffffffffffff1673ffffffffffffffffffffffffffffffffffffffff168152602001600015158152602001600015158152602001600015158152602001600254420163ffffffff168152509080600181540180825580915050906001820390600052602060002090600302016000909192909190915060008201518160000160006101000a81548173ffffffffffffffffffffffffffffffffffffffff021916908373ffffffffffffffffffffffffffffffffffffffff1602179055506020820151816001015560408201518160020160006101000a81548173ffffffffffffffffffffffffffffffffffffffff021916908373ffffffffffffffffffffffffffffffffffffffff16021790555060608201518160020160146101000a81548160ff02191690831515021790555060808201518160020160156101000a81548160ff02191690831515021790555060a08201518160020160166101000a81548160ff02191690831515021790555060c08201518160020160176101000a81548163ffffffff021916908363ffffffff1602179055505050039050336004600083815260200190815260200160002060006101000a81548173ffffffffffffffffffffffffffffffffffffffff021916908373ffffffffffffffffffffffffffffffffffffffff160217905550600560003373ffffffffffffffffffffffffffffffffffffffff1673ffffffffffffffffffffffffffffffffffffffff168152602001908152602001600020600081548092919060010191905055507ff4b648d661c56752ab76611cced01598fa65dcbe9660916a79fc72a1647d04188184604051808381526020018281526020019250505060405180910390a1809150509190505600a165627a7a72305820c38050327d4e042eccd8878e7eb77a518d60277e802672a78f362b11b0f2ba4e0029",
  "source": "pragma solidity ^0.4.24;\n\nimport \"./BountyFactory.sol\";\n\ncontract SmartBounty is BountyFactory {\n\n    constructor () public {}\n\n    event BountyCreated(address indexed addr, uint amount); \n    event BountyTaken(address addr, uint bountyId);\n    event BountyCompleted(address addr, uint bountyId);\n    event BountyVerified(address addr, uint bountyId);\n    event BountyWithdraw(address addr, uint bountyId);\n\n    modifier ownerOf(uint _bountyId) {\n        require(msg.sender == bountyToOwner[_bountyId]);\n        _;\n    }\n\n    function createBounty() public payable returns(uint){\n        uint bId = _createBounty(msg.value);\n        emit BountyCreated(msg.sender,msg.value);\n        return bId;\n    }\n  \n    function getTakenBountyByAddr(address _addr) public view returns(uint){\n        uint counter = 0;\n        for (uint i = 0; i < bounties.length; i++) {\n            if (bounties[i].taker == _addr) {\n                return i;\n            }\n            counter++;\n        }\n    }\n    \n    function initiateBounty(uint _bountyId) public returns(bool){\n        require(\n            bounties[_bountyId].taken == false && \n            bounties[_bountyId].complete == false);\n\n        bounties[_bountyId].taker = msg.sender;\n        bounties[_bountyId].taken = true;\n\n        emit BountyTaken(msg.sender, _bountyId);\n        return true;\n    }\n\n    function isBountyInitiated(uint _bountyId) public view returns(bool){\n        return bounties[_bountyId].taken;\n    }\n    function isBountyCompleted(uint _bountyId) public view returns(bool){\n        return bounties[_bountyId].complete;\n    }\n    function isBountyVerified(uint _bountyId) public view returns(bool){\n        return bounties[_bountyId].verified;\n    }\n\n    function getBountyStates(uint _bountyId) public view returns (bool,bool, bool){\n        bool init = bounties[_bountyId].taken;\n        bool complete = bounties[_bountyId].complete;\n        bool verified = bounties[_bountyId].verified;\n        return (init, complete, verified);\n    }\n\n    function completeBounty(uint _bountyId) public returns(bool){\n        require(\n            bounties[_bountyId].taker == msg.sender &&\n            bounties[_bountyId].complete == false && \n            bounties[_bountyId].taken == true);\n        \n        bounties[_bountyId].complete = true;\n        emit BountyCompleted(msg.sender, _bountyId);\n    }\n\n    function verifyBounty(uint _bountyId) public returns (bool){\n        require(\n            bounties[_bountyId].creator == msg.sender && \n            bounties[_bountyId].complete == true);\n        \n        bounties[_bountyId].verified = true;\n        \n        emit BountyVerified(msg.sender, _bountyId);\n    }\n\n    function withdrawBounty(uint _bountyId) public returns (bool){\n        require(\n            bounties[_bountyId].taker == msg.sender && \n            bounties[_bountyId].verified == true);\n\n        uint amount = bounties[_bountyId].amount;\n        bounties[_bountyId].amount = 0;\n        msg.sender.transfer(amount);\n        emit BountyWithdraw(msg.sender, _bountyId);\n        return true;\n    }\n\n    function bountyBalance(uint _bountyId) public view returns(uint){\n        return bounties[_bountyId].amount;\n    }\n\n    function getBountyAmtById(uint _bountyId) public view returns(uint){\n        return bounties[_bountyId].amount;\n    }\n\n    function getBountiesByOwner(address _owner) public view returns(uint[]) {\n        uint[] memory result = new uint[](ownerBountyCount[_owner]);\n        uint counter = 0;\n        for (uint i = 0; i < bounties.length; i++) {\n            if (bountyToOwner[i] == _owner) {\n                result[counter] = i;\n                counter++;\n            }\n        }\n        return result;\n    }\n\n    function getAllBounties() public view returns (uint[]){\n        uint[] memory result = new uint[](bounties.length);\n        //Bounty[] memory result = new Bounty[](bounties.length);\n        uint counter = 0;\n        for (uint i = 0; i < bounties.length; i++) {\n            result[counter] = i;\n            counter++;\n        }\n        return result;\n    }\n\n    function getBountyCount() public view returns(uint){\n        return bounties.length;\n    }\n}\n",
  "sourcePath": "/Users/benbrown/Desktop/dev/service-bounty/hacking-democracy-bounty/contracts/SmartBounty.sol",
  "compiler": {
    "name": "solc",
    "version": "0.4.24+commit.e67f0147.Emscripten.clang"
  },
  "schemaVersion": "2.0.1",
  "updatedAt": "2018-10-26T04:00:42.846Z"
}